{
  "contractName": "Bank",
  "abi": [
    {
      "constant": true,
      "inputs": [
        {
          "name": "",
          "type": "address"
        }
      ],
      "name": "bank_d1",
      "outputs": [
        {
          "name": "name",
          "type": "string"
        },
        {
          "name": "bal",
          "type": "uint256"
        },
        {
          "name": "time",
          "type": "uint256"
        },
        {
          "name": "loan_interst",
          "type": "uint256"
        },
        {
          "name": "fixed_deposit_interst",
          "type": "uint256"
        },
        {
          "name": "account_deposit_interst",
          "type": "uint256"
        },
        {
          "name": "token_count",
          "type": "uint256"
        },
        {
          "name": "borrow_amount",
          "type": "uint256"
        },
        {
          "name": "lend_amount",
          "type": "uint256"
        }
      ],
      "payable": false,
      "stateMutability": "view",
      "type": "function"
    },
    {
      "constant": true,
      "inputs": [
        {
          "name": "",
          "type": "address"
        }
      ],
      "name": "ln_get_count",
      "outputs": [
        {
          "name": "",
          "type": "uint256"
        }
      ],
      "payable": false,
      "stateMutability": "view",
      "type": "function"
    },
    {
      "constant": true,
      "inputs": [
        {
          "name": "",
          "type": "address"
        },
        {
          "name": "",
          "type": "uint256"
        }
      ],
      "name": "my_ac_details",
      "outputs": [
        {
          "name": "",
          "type": "address"
        }
      ],
      "payable": false,
      "stateMutability": "view",
      "type": "function"
    },
    {
      "constant": true,
      "inputs": [
        {
          "name": "",
          "type": "address"
        }
      ],
      "name": "bank_client_ac_count",
      "outputs": [
        {
          "name": "",
          "type": "uint256"
        }
      ],
      "payable": false,
      "stateMutability": "view",
      "type": "function"
    },
    {
      "constant": true,
      "inputs": [
        {
          "name": "",
          "type": "address"
        }
      ],
      "name": "bank_client_count",
      "outputs": [
        {
          "name": "",
          "type": "uint256"
        }
      ],
      "payable": false,
      "stateMutability": "view",
      "type": "function"
    },
    {
      "constant": true,
      "inputs": [
        {
          "name": "",
          "type": "uint256"
        }
      ],
      "name": "reg_user",
      "outputs": [
        {
          "name": "",
          "type": "address"
        }
      ],
      "payable": false,
      "stateMutability": "view",
      "type": "function"
    },
    {
      "constant": true,
      "inputs": [
        {
          "name": "",
          "type": "address"
        },
        {
          "name": "",
          "type": "uint256"
        }
      ],
      "name": "ln_pro",
      "outputs": [
        {
          "name": "bank_address",
          "type": "address"
        },
        {
          "name": "amount",
          "type": "uint256"
        },
        {
          "name": "time",
          "type": "uint256"
        },
        {
          "name": "months",
          "type": "uint256"
        }
      ],
      "payable": false,
      "stateMutability": "view",
      "type": "function"
    },
    {
      "constant": true,
      "inputs": [
        {
          "name": "",
          "type": "address"
        }
      ],
      "name": "ln_pro_count",
      "outputs": [
        {
          "name": "",
          "type": "uint256"
        }
      ],
      "payable": false,
      "stateMutability": "view",
      "type": "function"
    },
    {
      "constant": true,
      "inputs": [
        {
          "name": "",
          "type": "address"
        },
        {
          "name": "",
          "type": "uint256"
        }
      ],
      "name": "my_acc_details",
      "outputs": [
        {
          "name": "",
          "type": "address"
        }
      ],
      "payable": false,
      "stateMutability": "view",
      "type": "function"
    },
    {
      "constant": true,
      "inputs": [
        {
          "name": "",
          "type": "address"
        }
      ],
      "name": "my_acc_count",
      "outputs": [
        {
          "name": "",
          "type": "uint256"
        }
      ],
      "payable": false,
      "stateMutability": "view",
      "type": "function"
    },
    {
      "constant": true,
      "inputs": [
        {
          "name": "",
          "type": "address"
        },
        {
          "name": "",
          "type": "address"
        }
      ],
      "name": "bank_client_Details",
      "outputs": [
        {
          "name": "bank_address",
          "type": "address"
        },
        {
          "name": "user_address",
          "type": "address"
        },
        {
          "name": "amount",
          "type": "uint256"
        },
        {
          "name": "start_time",
          "type": "uint256"
        },
        {
          "name": "end_time",
          "type": "uint256"
        },
        {
          "name": "year",
          "type": "uint256"
        },
        {
          "name": "check",
          "type": "bool"
        }
      ],
      "payable": false,
      "stateMutability": "view",
      "type": "function"
    },
    {
      "constant": true,
      "inputs": [
        {
          "name": "",
          "type": "address"
        },
        {
          "name": "",
          "type": "uint256"
        }
      ],
      "name": "bank_owner_clients_ac",
      "outputs": [
        {
          "name": "",
          "type": "address"
        }
      ],
      "payable": false,
      "stateMutability": "view",
      "type": "function"
    },
    {
      "constant": true,
      "inputs": [
        {
          "name": "",
          "type": "address"
        },
        {
          "name": "",
          "type": "uint256"
        }
      ],
      "name": "bank_owner_clients",
      "outputs": [
        {
          "name": "",
          "type": "address"
        }
      ],
      "payable": false,
      "stateMutability": "view",
      "type": "function"
    },
    {
      "constant": true,
      "inputs": [
        {
          "name": "",
          "type": "address"
        },
        {
          "name": "",
          "type": "uint256"
        }
      ],
      "name": "ln_get",
      "outputs": [
        {
          "name": "bank_address",
          "type": "address"
        },
        {
          "name": "amount",
          "type": "uint256"
        },
        {
          "name": "count",
          "type": "uint256"
        },
        {
          "name": "last_setl_time",
          "type": "uint256"
        },
        {
          "name": "time",
          "type": "uint256"
        },
        {
          "name": "months",
          "type": "uint256"
        },
        {
          "name": "bal_ln",
          "type": "uint256"
        },
        {
          "name": "installment",
          "type": "uint256"
        },
        {
          "name": "id",
          "type": "uint256"
        }
      ],
      "payable": false,
      "stateMutability": "view",
      "type": "function"
    },
    {
      "constant": true,
      "inputs": [
        {
          "name": "",
          "type": "address"
        }
      ],
      "name": "my_ac_count",
      "outputs": [
        {
          "name": "",
          "type": "uint256"
        }
      ],
      "payable": false,
      "stateMutability": "view",
      "type": "function"
    },
    {
      "constant": true,
      "inputs": [
        {
          "name": "",
          "type": "address"
        },
        {
          "name": "",
          "type": "address"
        }
      ],
      "name": "bank_client_ac_Details",
      "outputs": [
        {
          "name": "bank_address",
          "type": "address"
        },
        {
          "name": "user_address",
          "type": "address"
        },
        {
          "name": "amount",
          "type": "uint256"
        }
      ],
      "payable": false,
      "stateMutability": "view",
      "type": "function"
    },
    {
      "constant": false,
      "inputs": [
        {
          "name": "name",
          "type": "string"
        },
        {
          "name": "loan_interst",
          "type": "uint256"
        },
        {
          "name": "fixed_deposit",
          "type": "uint256"
        },
        {
          "name": "acc_dep_int",
          "type": "uint256"
        }
      ],
      "name": "register",
      "outputs": [
        {
          "name": "",
          "type": "string"
        }
      ],
      "payable": true,
      "stateMutability": "payable",
      "type": "function"
    },
    {
      "constant": true,
      "inputs": [],
      "name": "show_registers",
      "outputs": [
        {
          "name": "",
          "type": "address[]"
        }
      ],
      "payable": false,
      "stateMutability": "view",
      "type": "function"
    },
    {
      "constant": true,
      "inputs": [
        {
          "name": "index",
          "type": "uint256"
        },
        {
          "name": "intr_type",
          "type": "uint256"
        }
      ],
      "name": "show_bank_detail",
      "outputs": [
        {
          "name": "bank_name",
          "type": "string"
        },
        {
          "name": "tem_add",
          "type": "address"
        },
        {
          "name": "intr",
          "type": "uint256"
        }
      ],
      "payable": false,
      "stateMutability": "view",
      "type": "function"
    },
    {
      "constant": false,
      "inputs": [],
      "name": "deposit",
      "outputs": [],
      "payable": true,
      "stateMutability": "payable",
      "type": "function"
    },
    {
      "constant": false,
      "inputs": [
        {
          "name": "amount",
          "type": "uint256"
        }
      ],
      "name": "withdraw",
      "outputs": [],
      "payable": false,
      "stateMutability": "nonpayable",
      "type": "function"
    },
    {
      "constant": false,
      "inputs": [
        {
          "name": "to",
          "type": "address"
        },
        {
          "name": "amount",
          "type": "uint256"
        }
      ],
      "name": "transfer",
      "outputs": [],
      "payable": false,
      "stateMutability": "nonpayable",
      "type": "function"
    },
    {
      "constant": true,
      "inputs": [],
      "name": "GetBalance",
      "outputs": [
        {
          "name": "",
          "type": "uint256"
        }
      ],
      "payable": false,
      "stateMutability": "view",
      "type": "function"
    },
    {
      "constant": true,
      "inputs": [
        {
          "name": "_banker",
          "type": "address"
        }
      ],
      "name": "fetchBalance",
      "outputs": [
        {
          "name": "",
          "type": "uint256"
        }
      ],
      "payable": false,
      "stateMutability": "view",
      "type": "function"
    },
    {
      "constant": true,
      "inputs": [
        {
          "name": "_bank",
          "type": "address"
        }
      ],
      "name": "isRegistered",
      "outputs": [
        {
          "name": "",
          "type": "bool"
        }
      ],
      "payable": false,
      "stateMutability": "view",
      "type": "function"
    },
    {
      "constant": false,
      "inputs": [
        {
          "name": "bank_address",
          "type": "address"
        },
        {
          "name": "amt",
          "type": "uint256"
        },
        {
          "name": "year",
          "type": "uint8"
        }
      ],
      "name": "req_loan",
      "outputs": [],
      "payable": false,
      "stateMutability": "nonpayable",
      "type": "function"
    },
    {
      "constant": false,
      "inputs": [
        {
          "name": "ln_id",
          "type": "uint256"
        }
      ],
      "name": "settlement",
      "outputs": [],
      "payable": false,
      "stateMutability": "nonpayable",
      "type": "function"
    },
    {
      "constant": false,
      "inputs": [
        {
          "name": "bank_addr",
          "type": "address"
        },
        {
          "name": "year",
          "type": "uint256"
        }
      ],
      "name": "Fixed_Deposit",
      "outputs": [],
      "payable": true,
      "stateMutability": "payable",
      "type": "function"
    },
    {
      "constant": false,
      "inputs": [
        {
          "name": "bank_addr",
          "type": "address"
        }
      ],
      "name": "fixed_amount_get",
      "outputs": [],
      "payable": false,
      "stateMutability": "nonpayable",
      "type": "function"
    },
    {
      "constant": false,
      "inputs": [
        {
          "name": "user_address",
          "type": "address"
        }
      ],
      "name": "amount_settlement",
      "outputs": [],
      "payable": false,
      "stateMutability": "nonpayable",
      "type": "function"
    },
    {
      "constant": false,
      "inputs": [
        {
          "name": "bank_addr",
          "type": "address"
        }
      ],
      "name": "register_client",
      "outputs": [],
      "payable": false,
      "stateMutability": "nonpayable",
      "type": "function"
    },
    {
      "constant": false,
      "inputs": [
        {
          "name": "bank_addr",
          "type": "address"
        }
      ],
      "name": "deposit_client",
      "outputs": [],
      "payable": true,
      "stateMutability": "payable",
      "type": "function"
    },
    {
      "constant": false,
      "inputs": [
        {
          "name": "bank_addr",
          "type": "address"
        },
        {
          "name": "amount",
          "type": "uint256"
        }
      ],
      "name": "withdraw_client",
      "outputs": [],
      "payable": false,
      "stateMutability": "nonpayable",
      "type": "function"
    },
    {
      "constant": false,
      "inputs": [
        {
          "name": "bank_addr",
          "type": "address"
        },
        {
          "name": "to",
          "type": "address"
        },
        {
          "name": "amount",
          "type": "uint256"
        }
      ],
      "name": "transfer_client",
      "outputs": [],
      "payable": false,
      "stateMutability": "nonpayable",
      "type": "function"
    },
    {
      "constant": false,
      "inputs": [],
      "name": "give_interest",
      "outputs": [],
      "payable": false,
      "stateMutability": "nonpayable",
      "type": "function"
    }
  ],
  "bytecode": "0x6060604052341561000f57600080fd5b614b3e8061001e6000396000f3006060604052600436106101b7576000357c0100000000000000000000000000000000000000000000000000000000900463ffffffff16806324e1cf5b146101bc5780632e1a7d4d146101fe5780633b6afaa5146102215780633e9d0e391461028b578063489e0cf1146103925780634a3f687e146103cb57806360ad23911461041857806366f73ac71461043b5780636989bf15146104bd5780637413e96a1461050a5780637b30ccd51461055757806388e859f0146105ba57806389e3611b1461061b57806389fd322d146106b25780638e033a7a146106ff57806390a4a12614610781578063a16c1f15146107ce578063a1cb5f39146108b4578063a9059cbb14610902578063ac3528b914610944578063ac9dd7d914610a36578063b37fb75014610ab8578063b78d296b14610b3a578063bd82469514610bf4578063c3c5a54714610c22578063d0e30db014610c73578063d46531a214610c7d578063de014f9514610cca578063eb41fe4b14610da9578063ed2872b114610e7b578063f01ec38014610ec8578063f3da019714610f01578063f4224b7f14610f38578063f8f8a91214610f4d578063fc03865514610f76575b600080fd5b34156101c757600080fd5b6101fc600480803573ffffffffffffffffffffffffffffffffffffffff16906020019091908035906020019091905050610faf565b005b341561020957600080fd5b61021f600480803590602001909190505061111f565b005b341561022c57600080fd5b610234611251565b6040518080602001828103825283818151815260200191508051906020019060200280838360005b8381101561027757808201518184015260208101905061025c565b505050509050019250505060405180910390f35b341561029657600080fd5b6102c2600480803573ffffffffffffffffffffffffffffffffffffffff169060200190919050506112e5565b60405180806020018a815260200189815260200188815260200187815260200186815260200185815260200184815260200183815260200182810382528b81815460018160011615610100020316600290048152602001915080546001816001161561010002031660029004801561037b5780601f106103505761010080835404028352916020019161037b565b820191906000526020600020905b81548152906001019060200180831161035e57829003601f168201915b50509a505050505050505050505060405180910390f35b341561039d57600080fd5b6103c9600480803573ffffffffffffffffffffffffffffffffffffffff16906020019091905050611332565b005b34156103d657600080fd5b610402600480803573ffffffffffffffffffffffffffffffffffffffff16906020019091905050611726565b6040518082815260200191505060405180910390f35b341561042357600080fd5b610439600480803590602001909190505061173e565b005b341561044657600080fd5b61047b600480803573ffffffffffffffffffffffffffffffffffffffff16906020019091908035906020019091905050611be5565b604051808273ffffffffffffffffffffffffffffffffffffffff1673ffffffffffffffffffffffffffffffffffffffff16815260200191505060405180910390f35b34156104c857600080fd5b6104f4600480803573ffffffffffffffffffffffffffffffffffffffff16906020019091905050611c27565b6040518082815260200191505060405180910390f35b341561051557600080fd5b610541600480803573ffffffffffffffffffffffffffffffffffffffff16906020019091905050611c3f565b6040518082815260200191505060405180910390f35b341561056257600080fd5b6105786004808035906020019091905050611c57565b604051808273ffffffffffffffffffffffffffffffffffffffff1673ffffffffffffffffffffffffffffffffffffffff16815260200191505060405180910390f35b34156105c557600080fd5b610619600480803573ffffffffffffffffffffffffffffffffffffffff1690602001909190803573ffffffffffffffffffffffffffffffffffffffff16906020019091908035906020019091905050611c96565b005b341561062657600080fd5b61065b600480803573ffffffffffffffffffffffffffffffffffffffff16906020019091908035906020019091905050611e16565b604051808573ffffffffffffffffffffffffffffffffffffffff1673ffffffffffffffffffffffffffffffffffffffff16815260200184815260200183815260200182815260200194505050505060405180910390f35b34156106bd57600080fd5b6106e9600480803573ffffffffffffffffffffffffffffffffffffffff16906020019091905050611e73565b6040518082815260200191505060405180910390f35b341561070a57600080fd5b61073f600480803573ffffffffffffffffffffffffffffffffffffffff16906020019091908035906020019091905050611e8b565b604051808273ffffffffffffffffffffffffffffffffffffffff1673ffffffffffffffffffffffffffffffffffffffff16815260200191505060405180910390f35b341561078c57600080fd5b6107b8600480803573ffffffffffffffffffffffffffffffffffffffff16906020019091905050611ecd565b6040518082815260200191505060405180910390f35b610839600480803590602001908201803590602001908080601f01602080910402602001604051908101604052809392919081815260200183838082843782019150505050505091908035906020019091908035906020019091908035906020019091905050611ee5565b6040518080602001828103825283818151815260200191508051906020019080838360005b8381101561087957808201518184015260208101905061085e565b50505050905090810190601f1680156108a65780820380516001836020036101000a031916815260200191505b509250505060405180910390f35b34156108bf57600080fd5b610900600480803573ffffffffffffffffffffffffffffffffffffffff1690602001909190803590602001909190803560ff169060200190919050506121cc565b005b341561090d57600080fd5b610942600480803573ffffffffffffffffffffffffffffffffffffffff16906020019091908035906020019091905050612cbb565b005b341561094f57600080fd5b61099a600480803573ffffffffffffffffffffffffffffffffffffffff1690602001909190803573ffffffffffffffffffffffffffffffffffffffff16906020019091905050612dfd565b604051808873ffffffffffffffffffffffffffffffffffffffff1673ffffffffffffffffffffffffffffffffffffffff1681526020018773ffffffffffffffffffffffffffffffffffffffff1673ffffffffffffffffffffffffffffffffffffffff1681526020018681526020018581526020018481526020018381526020018215151515815260200197505050505050505060405180910390f35b3415610a4157600080fd5b610a76600480803573ffffffffffffffffffffffffffffffffffffffff16906020019091908035906020019091905050612e99565b604051808273ffffffffffffffffffffffffffffffffffffffff1673ffffffffffffffffffffffffffffffffffffffff16815260200191505060405180910390f35b3415610ac357600080fd5b610af8600480803573ffffffffffffffffffffffffffffffffffffffff16906020019091908035906020019091905050612edb565b604051808273ffffffffffffffffffffffffffffffffffffffff1673ffffffffffffffffffffffffffffffffffffffff16815260200191505060405180910390f35b3415610b4557600080fd5b610b7a600480803573ffffffffffffffffffffffffffffffffffffffff16906020019091908035906020019091905050612f1d565b604051808a73ffffffffffffffffffffffffffffffffffffffff1673ffffffffffffffffffffffffffffffffffffffff168152602001898152602001888152602001878152602001868152602001858152602001848152602001838152602001828152602001995050505050505050505060405180910390f35b610c20600480803573ffffffffffffffffffffffffffffffffffffffff16906020019091905050612f98565b005b3415610c2d57600080fd5b610c59600480803573ffffffffffffffffffffffffffffffffffffffff16906020019091905050613155565b604051808215151515815260200191505060405180910390f35b610c7b6131a2565b005b3415610c8857600080fd5b610cb4600480803573ffffffffffffffffffffffffffffffffffffffff16906020019091905050613253565b6040518082815260200191505060405180910390f35b3415610cd557600080fd5b610cf4600480803590602001909190803590602001909190505061326b565b60405180806020018473ffffffffffffffffffffffffffffffffffffffff1673ffffffffffffffffffffffffffffffffffffffff168152602001838152602001828103825285818151815260200191508051906020019080838360005b83811015610d6c578082015181840152602081019050610d51565b50505050905090810190601f168015610d995780820380516001836020036101000a031916815260200191505b5094505050505060405180910390f35b3415610db457600080fd5b610dff600480803573ffffffffffffffffffffffffffffffffffffffff1690602001909190803573ffffffffffffffffffffffffffffffffffffffff16906020019091905050613480565b604051808473ffffffffffffffffffffffffffffffffffffffff1673ffffffffffffffffffffffffffffffffffffffff1681526020018373ffffffffffffffffffffffffffffffffffffffff1673ffffffffffffffffffffffffffffffffffffffff168152602001828152602001935050505060405180910390f35b3415610e8657600080fd5b610eb2600480803573ffffffffffffffffffffffffffffffffffffffff169060200190919050506134f7565b6040518082815260200191505060405180910390f35b3415610ed357600080fd5b610eff600480803573ffffffffffffffffffffffffffffffffffffffff16906020019091905050613542565b005b610f36600480803573ffffffffffffffffffffffffffffffffffffffff16906020019091908035906020019091905050613ae9565b005b3415610f4357600080fd5b610f4b6142c8565b005b3415610f5857600080fd5b610f60614561565b6040518082815260200191505060405180910390f35b3415610f8157600080fd5b610fad600480803573ffffffffffffffffffffffffffffffffffffffff169060200190919050506145fa565b005b806000808473ffffffffffffffffffffffffffffffffffffffff1673ffffffffffffffffffffffffffffffffffffffff1681526020019081526020016000206001015410151515610fff57600080fd5b80600b60008473ffffffffffffffffffffffffffffffffffffffff1673ffffffffffffffffffffffffffffffffffffffff16815260200190815260200160002060003373ffffffffffffffffffffffffffffffffffffffff1673ffffffffffffffffffffffffffffffffffffffff16815260200190815260200160002060020160008282540392505081905550806000808473ffffffffffffffffffffffffffffffffffffffff1673ffffffffffffffffffffffffffffffffffffffff168152602001908152602001600020600101600082825403925050819055503373ffffffffffffffffffffffffffffffffffffffff166108fc829081150290604051600060405180830381858888f19350505050151561111b57600080fd5b5050565b60008060003373ffffffffffffffffffffffffffffffffffffffff1673ffffffffffffffffffffffffffffffffffffffff168152602001908152602001600020600201541415151561117057600080fd5b806000803373ffffffffffffffffffffffffffffffffffffffff1673ffffffffffffffffffffffffffffffffffffffff168152602001908152602001600020600101541115156111bf57600080fd5b806000803373ffffffffffffffffffffffffffffffffffffffff1673ffffffffffffffffffffffffffffffffffffffff168152602001908152602001600020600101600082825403925050819055503373ffffffffffffffffffffffffffffffffffffffff166108fc829081150290604051600060405180830381858888f19350505050151561124e57600080fd5b50565b611259614a19565b60018054806020026020016040519081016040528092919081815260200182805480156112db57602002820191906000526020600020905b8160009054906101000a900473ffffffffffffffffffffffffffffffffffffffff1673ffffffffffffffffffffffffffffffffffffffff1681526020019060010190808311611291575b5050505050905090565b600060205280600052604060002060009150905080600001908060010154908060020154908060030154908060040154908060050154908060060154908060070154908060080154905089565b3373ffffffffffffffffffffffffffffffffffffffff168173ffffffffffffffffffffffffffffffffffffffff161415151561136d57600080fd5b80600b60008373ffffffffffffffffffffffffffffffffffffffff1673ffffffffffffffffffffffffffffffffffffffff16815260200190815260200160002060003373ffffffffffffffffffffffffffffffffffffffff1673ffffffffffffffffffffffffffffffffffffffff16815260200190815260200160002060000160006101000a81548173ffffffffffffffffffffffffffffffffffffffff021916908373ffffffffffffffffffffffffffffffffffffffff16021790555033600b60008373ffffffffffffffffffffffffffffffffffffffff1673ffffffffffffffffffffffffffffffffffffffff16815260200190815260200160002060003373ffffffffffffffffffffffffffffffffffffffff1673ffffffffffffffffffffffffffffffffffffffff16815260200190815260200160002060010160006101000a81548173ffffffffffffffffffffffffffffffffffffffff021916908373ffffffffffffffffffffffffffffffffffffffff16021790555033600c60008373ffffffffffffffffffffffffffffffffffffffff1673ffffffffffffffffffffffffffffffffffffffff1681526020019081526020016000206000600d60008573ffffffffffffffffffffffffffffffffffffffff1673ffffffffffffffffffffffffffffffffffffffff16815260200190815260200160002054815260200190815260200160002060006101000a81548173ffffffffffffffffffffffffffffffffffffffff021916908373ffffffffffffffffffffffffffffffffffffffff160217905550600d60008273ffffffffffffffffffffffffffffffffffffffff1673ffffffffffffffffffffffffffffffffffffffff1681526020019081526020016000206000815480929190600101919050555080600e60003373ffffffffffffffffffffffffffffffffffffffff1673ffffffffffffffffffffffffffffffffffffffff1681526020019081526020016000206000600f60003373ffffffffffffffffffffffffffffffffffffffff1673ffffffffffffffffffffffffffffffffffffffff16815260200190815260200160002054815260200190815260200160002060006101000a81548173ffffffffffffffffffffffffffffffffffffffff021916908373ffffffffffffffffffffffffffffffffffffffff160217905550600f60003373ffffffffffffffffffffffffffffffffffffffff1673ffffffffffffffffffffffffffffffffffffffff1681526020019081526020016000206000815480929190600101919050555050565b60036020528060005260406000206000915090505481565b6000806000806000806000600260003373ffffffffffffffffffffffffffffffffffffffff1673ffffffffffffffffffffffffffffffffffffffff1681526020019081526020016000206000898152602001908152602001600020600201549650600260003373ffffffffffffffffffffffffffffffffffffffff1673ffffffffffffffffffffffffffffffffffffffff1681526020019081526020016000206000898152602001908152602001600020600501549550600260003373ffffffffffffffffffffffffffffffffffffffff1673ffffffffffffffffffffffffffffffffffffffff1681526020019081526020016000206000898152602001908152602001600020600601549450600260003373ffffffffffffffffffffffffffffffffffffffff1673ffffffffffffffffffffffffffffffffffffffff1681526020019081526020016000206000898152602001908152602001600020600701549350600260003373ffffffffffffffffffffffffffffffffffffffff1673ffffffffffffffffffffffffffffffffffffffff168152602001908152602001600020600089815260200190815260200160002060000160009054906101000a900473ffffffffffffffffffffffffffffffffffffffff169250858710151561192557600080fd5b6000808473ffffffffffffffffffffffffffffffffffffffff1673ffffffffffffffffffffffffffffffffffffffff1681526020019081526020016000206003015491506064808381151561197657fe5b04860281151561198257fe5b0490506000803373ffffffffffffffffffffffffffffffffffffffff1673ffffffffffffffffffffffffffffffffffffffff16815260200190815260200160002060010154848201111515156119d757600080fd5b8381016000803373ffffffffffffffffffffffffffffffffffffffff1673ffffffffffffffffffffffffffffffffffffffff168152602001908152602001600020600101600082825403925050819055508381016000808573ffffffffffffffffffffffffffffffffffffffff1673ffffffffffffffffffffffffffffffffffffffff16815260200190815260200160002060010160008282540192505081905550836000803373ffffffffffffffffffffffffffffffffffffffff1673ffffffffffffffffffffffffffffffffffffffff16815260200190815260200160002060070160008282540392505081905550836000808573ffffffffffffffffffffffffffffffffffffffff1673ffffffffffffffffffffffffffffffffffffffff1681526020019081526020016000206008016000828254039250508190555083600260003373ffffffffffffffffffffffffffffffffffffffff1673ffffffffffffffffffffffffffffffffffffffff16815260200190815260200160002060008a815260200190815260200160002060060160008282540392505081905550600260003373ffffffffffffffffffffffffffffffffffffffff1673ffffffffffffffffffffffffffffffffffffffff1681526020019081526020016000206000898152602001908152602001600020600201600081548092919060010191905055505050505050505050565b600e6020528160005260406000206020528060005260406000206000915091509054906101000a900473ffffffffffffffffffffffffffffffffffffffff1681565b600d6020528060005260406000206000915090505481565b60086020528060005260406000206000915090505481565b600181815481101515611c6657fe5b90600052602060002090016000915054906101000a900473ffffffffffffffffffffffffffffffffffffffff1681565b806000808573ffffffffffffffffffffffffffffffffffffffff1673ffffffffffffffffffffffffffffffffffffffff1681526020019081526020016000206001015410151515611ce657600080fd5b80600b60008573ffffffffffffffffffffffffffffffffffffffff1673ffffffffffffffffffffffffffffffffffffffff16815260200190815260200160002060003373ffffffffffffffffffffffffffffffffffffffff1673ffffffffffffffffffffffffffffffffffffffff16815260200190815260200160002060020160008282540392505081905550806000808573ffffffffffffffffffffffffffffffffffffffff1673ffffffffffffffffffffffffffffffffffffffff16815260200190815260200160002060010160008282540392505081905550806000808473ffffffffffffffffffffffffffffffffffffffff1673ffffffffffffffffffffffffffffffffffffffff16815260200190815260200160002060010160008282540192505081905550505050565b6004602052816000526040600020602052806000526040600020600091509150508060000160009054906101000a900473ffffffffffffffffffffffffffffffffffffffff16908060010154908060020154908060030154905084565b60056020528060005260406000206000915090505481565b60096020528160005260406000206020528060005260406000206000915091509054906101000a900473ffffffffffffffffffffffffffffffffffffffff1681565b600a6020528060005260406000206000915090505481565b611eed614a2d565b60008060003373ffffffffffffffffffffffffffffffffffffffff1673ffffffffffffffffffffffffffffffffffffffff16815260200190815260200160002060020154141561218b57846000803373ffffffffffffffffffffffffffffffffffffffff1673ffffffffffffffffffffffffffffffffffffffff1681526020019081526020016000206000019080519060200190611f8c929190614a41565b50836000803373ffffffffffffffffffffffffffffffffffffffff1673ffffffffffffffffffffffffffffffffffffffff16815260200190815260200160002060030181905550826000803373ffffffffffffffffffffffffffffffffffffffff1673ffffffffffffffffffffffffffffffffffffffff16815260200190815260200160002060040181905550816000803373ffffffffffffffffffffffffffffffffffffffff1673ffffffffffffffffffffffffffffffffffffffff16815260200190815260200160002060050181905550346000803373ffffffffffffffffffffffffffffffffffffffff1673ffffffffffffffffffffffffffffffffffffffff16815260200190815260200160002060010181905550426000803373ffffffffffffffffffffffffffffffffffffffff1673ffffffffffffffffffffffffffffffffffffffff16815260200190815260200160002060020181905550600180548060010182816120ff9190614ac1565b9160005260206000209001600033909190916101000a81548173ffffffffffffffffffffffffffffffffffffffff021916908373ffffffffffffffffffffffffffffffffffffffff160217905550506040805190810160405280601781526020017f5375636365737366756c6c79205265676973746572656400000000000000000081525090506121c4565b6040805190810160405280601481526020017f4163636f756e7420416c7265617920457869737400000000000000000000000081525090505b949350505050565b60008060003373ffffffffffffffffffffffffffffffffffffffff1673ffffffffffffffffffffffffffffffffffffffff168152602001908152602001600020600201541415151561221d57600080fd5b60008060008573ffffffffffffffffffffffffffffffffffffffff1673ffffffffffffffffffffffffffffffffffffffff168152602001908152602001600020600201541415151561226e57600080fd5b3373ffffffffffffffffffffffffffffffffffffffff168373ffffffffffffffffffffffffffffffffffffffff16141515156122a957600080fd5b816000808573ffffffffffffffffffffffffffffffffffffffff1673ffffffffffffffffffffffffffffffffffffffff168152602001908152602001600020600101541115156122f857600080fd5b816000803373ffffffffffffffffffffffffffffffffffffffff1673ffffffffffffffffffffffffffffffffffffffff16815260200190815260200160002060010160008282540192505081905550816000808573ffffffffffffffffffffffffffffffffffffffff1673ffffffffffffffffffffffffffffffffffffffff16815260200190815260200160002060010160008282540392505081905550816000803373ffffffffffffffffffffffffffffffffffffffff1673ffffffffffffffffffffffffffffffffffffffff16815260200190815260200160002060070160008282540192505081905550816000808573ffffffffffffffffffffffffffffffffffffffff1673ffffffffffffffffffffffffffffffffffffffff1681526020019081526020016000206008016000828254019250508190555082600260003373ffffffffffffffffffffffffffffffffffffffff1673ffffffffffffffffffffffffffffffffffffffff1681526020019081526020016000206000600360003373ffffffffffffffffffffffffffffffffffffffff1673ffffffffffffffffffffffffffffffffffffffff16815260200190815260200160002054815260200190815260200160002060000160006101000a81548173ffffffffffffffffffffffffffffffffffffffff021916908373ffffffffffffffffffffffffffffffffffffffff16021790555081600260003373ffffffffffffffffffffffffffffffffffffffff1673ffffffffffffffffffffffffffffffffffffffff1681526020019081526020016000206000600360003373ffffffffffffffffffffffffffffffffffffffff1673ffffffffffffffffffffffffffffffffffffffff16815260200190815260200160002054815260200190815260200160002060010181905550600c810260ff16600260003373ffffffffffffffffffffffffffffffffffffffff1673ffffffffffffffffffffffffffffffffffffffff1681526020019081526020016000206000600360003373ffffffffffffffffffffffffffffffffffffffff1673ffffffffffffffffffffffffffffffffffffffff1681526020019081526020016000205481526020019081526020016000206005018190555042600260003373ffffffffffffffffffffffffffffffffffffffff1673ffffffffffffffffffffffffffffffffffffffff1681526020019081526020016000206000600360003373ffffffffffffffffffffffffffffffffffffffff1673ffffffffffffffffffffffffffffffffffffffff1681526020019081526020016000205481526020019081526020016000206004018190555042600260003373ffffffffffffffffffffffffffffffffffffffff1673ffffffffffffffffffffffffffffffffffffffff1681526020019081526020016000206000600360003373ffffffffffffffffffffffffffffffffffffffff1673ffffffffffffffffffffffffffffffffffffffff16815260200190815260200160002054815260200190815260200160002060030181905550600c810260ff168281151561277857fe5b04600260003373ffffffffffffffffffffffffffffffffffffffff1673ffffffffffffffffffffffffffffffffffffffff1681526020019081526020016000206000600360003373ffffffffffffffffffffffffffffffffffffffff1673ffffffffffffffffffffffffffffffffffffffff1681526020019081526020016000205481526020019081526020016000206007018190555081600260003373ffffffffffffffffffffffffffffffffffffffff1673ffffffffffffffffffffffffffffffffffffffff1681526020019081526020016000206000600360003373ffffffffffffffffffffffffffffffffffffffff1673ffffffffffffffffffffffffffffffffffffffff16815260200190815260200160002054815260200190815260200160002060060181905550600360003373ffffffffffffffffffffffffffffffffffffffff1673ffffffffffffffffffffffffffffffffffffffff16815260200190815260200160002054600260003373ffffffffffffffffffffffffffffffffffffffff1673ffffffffffffffffffffffffffffffffffffffff1681526020019081526020016000206000600360003373ffffffffffffffffffffffffffffffffffffffff1673ffffffffffffffffffffffffffffffffffffffff1681526020019081526020016000205481526020019081526020016000206008018190555033600460008573ffffffffffffffffffffffffffffffffffffffff1673ffffffffffffffffffffffffffffffffffffffff1681526020019081526020016000206000600560008773ffffffffffffffffffffffffffffffffffffffff1673ffffffffffffffffffffffffffffffffffffffff16815260200190815260200160002054815260200190815260200160002060000160006101000a81548173ffffffffffffffffffffffffffffffffffffffff021916908373ffffffffffffffffffffffffffffffffffffffff16021790555081600460008573ffffffffffffffffffffffffffffffffffffffff1673ffffffffffffffffffffffffffffffffffffffff1681526020019081526020016000206000600560008773ffffffffffffffffffffffffffffffffffffffff1673ffffffffffffffffffffffffffffffffffffffff16815260200190815260200160002054815260200190815260200160002060010181905550600c810260ff16600460008573ffffffffffffffffffffffffffffffffffffffff1673ffffffffffffffffffffffffffffffffffffffff1681526020019081526020016000206000600560008773ffffffffffffffffffffffffffffffffffffffff1673ffffffffffffffffffffffffffffffffffffffff1681526020019081526020016000205481526020019081526020016000206003018190555042600460008573ffffffffffffffffffffffffffffffffffffffff1673ffffffffffffffffffffffffffffffffffffffff1681526020019081526020016000206000600560008773ffffffffffffffffffffffffffffffffffffffff1673ffffffffffffffffffffffffffffffffffffffff16815260200190815260200160002054815260200190815260200160002060020181905550600560008473ffffffffffffffffffffffffffffffffffffffff1673ffffffffffffffffffffffffffffffffffffffff16815260200190815260200160002060008154809291906001019190505550600360003373ffffffffffffffffffffffffffffffffffffffff1673ffffffffffffffffffffffffffffffffffffffff16815260200190815260200160002060008154809291906001019190505550505050565b60008060003373ffffffffffffffffffffffffffffffffffffffff1673ffffffffffffffffffffffffffffffffffffffff1681526020019081526020016000206002015414151515612d0c57600080fd5b806000803373ffffffffffffffffffffffffffffffffffffffff1673ffffffffffffffffffffffffffffffffffffffff16815260200190815260200160002060010154111515612d5b57600080fd5b806000808473ffffffffffffffffffffffffffffffffffffffff1673ffffffffffffffffffffffffffffffffffffffff16815260200190815260200160002060010160008282540192505081905550806000803373ffffffffffffffffffffffffffffffffffffffff1673ffffffffffffffffffffffffffffffffffffffff168152602001908152602001600020600101600082825403925050819055505050565b6006602052816000526040600020602052806000526040600020600091509150508060000160009054906101000a900473ffffffffffffffffffffffffffffffffffffffff16908060010160009054906101000a900473ffffffffffffffffffffffffffffffffffffffff16908060020154908060030154908060040154908060050154908060060160009054906101000a900460ff16905087565b600c6020528160005260406000206020528060005260406000206000915091509054906101000a900473ffffffffffffffffffffffffffffffffffffffff1681565b60076020528160005260406000206020528060005260406000206000915091509054906101000a900473ffffffffffffffffffffffffffffffffffffffff1681565b6002602052816000526040600020602052806000526040600020600091509150508060000160009054906101000a900473ffffffffffffffffffffffffffffffffffffffff16908060010154908060020154908060030154908060040154908060050154908060060154908060070154908060080154905089565b3373ffffffffffffffffffffffffffffffffffffffff16600b60008373ffffffffffffffffffffffffffffffffffffffff1673ffffffffffffffffffffffffffffffffffffffff16815260200190815260200160002060003373ffffffffffffffffffffffffffffffffffffffff1673ffffffffffffffffffffffffffffffffffffffff16815260200190815260200160002060010160009054906101000a900473ffffffffffffffffffffffffffffffffffffffff1673ffffffffffffffffffffffffffffffffffffffff161415156130765761307581611332565b5b34600b60008373ffffffffffffffffffffffffffffffffffffffff1673ffffffffffffffffffffffffffffffffffffffff16815260200190815260200160002060003373ffffffffffffffffffffffffffffffffffffffff1673ffffffffffffffffffffffffffffffffffffffff16815260200190815260200160002060020160008282540192505081905550346000808373ffffffffffffffffffffffffffffffffffffffff1673ffffffffffffffffffffffffffffffffffffffff1681526020019081526020016000206001016000828254019250508190555050565b6000806000808473ffffffffffffffffffffffffffffffffffffffff1673ffffffffffffffffffffffffffffffffffffffff16815260200190815260200160002060020154119050919050565b60008060003373ffffffffffffffffffffffffffffffffffffffff1673ffffffffffffffffffffffffffffffffffffffff16815260200190815260200160002060020154141515156131f357600080fd5b60003411151561320257600080fd5b346000803373ffffffffffffffffffffffffffffffffffffffff1673ffffffffffffffffffffffffffffffffffffffff16815260200190815260200160002060010160008282540192505081905550565b600f6020528060005260406000206000915090505481565b613273614a2d565b60008060018581548110151561328557fe5b906000526020600020900160009054906101000a900473ffffffffffffffffffffffffffffffffffffffff1691506000808373ffffffffffffffffffffffffffffffffffffffff1673ffffffffffffffffffffffffffffffffffffffff1681526020019081526020016000206000018054600181600116156101000203166002900480601f0160208091040260200160405190810160405280929190818152602001828054600181600116156101000203166002900480156133885780601f1061335d57610100808354040283529160200191613388565b820191906000526020600020905b81548152906001019060200180831161336b57829003601f168201915b5050505050925060008414156133dd576000808373ffffffffffffffffffffffffffffffffffffffff1673ffffffffffffffffffffffffffffffffffffffff1681526020019081526020016000206003015490505b600184141561342b576000808373ffffffffffffffffffffffffffffffffffffffff1673ffffffffffffffffffffffffffffffffffffffff1681526020019081526020016000206004015490505b6002841415613479576000808373ffffffffffffffffffffffffffffffffffffffff1673ffffffffffffffffffffffffffffffffffffffff1681526020019081526020016000206005015490505b9250925092565b600b602052816000526040600020602052806000526040600020600091509150508060000160009054906101000a900473ffffffffffffffffffffffffffffffffffffffff16908060010160009054906101000a900473ffffffffffffffffffffffffffffffffffffffff16908060020154905083565b60008060008373ffffffffffffffffffffffffffffffffffffffff1673ffffffffffffffffffffffffffffffffffffffff168152602001908152602001600020600101549050919050565b600080600080600060011515600660008873ffffffffffffffffffffffffffffffffffffffff1673ffffffffffffffffffffffffffffffffffffffff16815260200190815260200160002060003373ffffffffffffffffffffffffffffffffffffffff1673ffffffffffffffffffffffffffffffffffffffff16815260200190815260200160002060060160009054906101000a900460ff1615151415156135e957600080fd5b600660008773ffffffffffffffffffffffffffffffffffffffff1673ffffffffffffffffffffffffffffffffffffffff16815260200190815260200160002060003373ffffffffffffffffffffffffffffffffffffffff1673ffffffffffffffffffffffffffffffffffffffff168152602001908152602001600020600501549050600660008773ffffffffffffffffffffffffffffffffffffffff1673ffffffffffffffffffffffffffffffffffffffff16815260200190815260200160002060003373ffffffffffffffffffffffffffffffffffffffff1673ffffffffffffffffffffffffffffffffffffffff1681526020019081526020016000206002015494506000808773ffffffffffffffffffffffffffffffffffffffff1673ffffffffffffffffffffffffffffffffffffffff168152602001908152602001600020600401549350600660008773ffffffffffffffffffffffffffffffffffffffff1673ffffffffffffffffffffffffffffffffffffffff16815260200190815260200160002060003373ffffffffffffffffffffffffffffffffffffffff1673ffffffffffffffffffffffffffffffffffffffff168152602001908152602001600020600401549150814210151561395857606480858115156137c957fe5b04828702028115156137d757fe5b04850192506000808773ffffffffffffffffffffffffffffffffffffffff1673ffffffffffffffffffffffffffffffffffffffff16815260200190815260200160002060010154831115151561382c57600080fd5b826000808873ffffffffffffffffffffffffffffffffffffffff1673ffffffffffffffffffffffffffffffffffffffff168152602001908152602001600020600101600082825403925050819055503373ffffffffffffffffffffffffffffffffffffffff166108fc849081150290604051600060405180830381858888f1935050505015156138bb57600080fd5b6000600660008873ffffffffffffffffffffffffffffffffffffffff1673ffffffffffffffffffffffffffffffffffffffff16815260200190815260200160002060003373ffffffffffffffffffffffffffffffffffffffff1673ffffffffffffffffffffffffffffffffffffffff16815260200190815260200160002060060160006101000a81548160ff021916908315150217905550613ae1565b60648581151561396457fe5b04850392506000808773ffffffffffffffffffffffffffffffffffffffff1673ffffffffffffffffffffffffffffffffffffffff1681526020019081526020016000206001015483111515156139b957600080fd5b826000808873ffffffffffffffffffffffffffffffffffffffff1673ffffffffffffffffffffffffffffffffffffffff168152602001908152602001600020600101600082825403925050819055503373ffffffffffffffffffffffffffffffffffffffff166108fc849081150290604051600060405180830381858888f193505050501515613a4857600080fd5b6000600660008873ffffffffffffffffffffffffffffffffffffffff1673ffffffffffffffffffffffffffffffffffffffff16815260200190815260200160002060003373ffffffffffffffffffffffffffffffffffffffff1673ffffffffffffffffffffffffffffffffffffffff16815260200190815260200160002060060160006101000a81548160ff0219169083151502179055505b505050505050565b60008060008473ffffffffffffffffffffffffffffffffffffffff1673ffffffffffffffffffffffffffffffffffffffff1681526020019081526020016000206002015414151515613b3a57600080fd5b60001515600660008473ffffffffffffffffffffffffffffffffffffffff1673ffffffffffffffffffffffffffffffffffffffff16815260200190815260200160002060003373ffffffffffffffffffffffffffffffffffffffff1673ffffffffffffffffffffffffffffffffffffffff16815260200190815260200160002060060160009054906101000a900460ff161515141515613bd957600080fd5b3373ffffffffffffffffffffffffffffffffffffffff168273ffffffffffffffffffffffffffffffffffffffff1614151515613c1457600080fd5b81600660008473ffffffffffffffffffffffffffffffffffffffff1673ffffffffffffffffffffffffffffffffffffffff16815260200190815260200160002060003373ffffffffffffffffffffffffffffffffffffffff1673ffffffffffffffffffffffffffffffffffffffff16815260200190815260200160002060000160006101000a81548173ffffffffffffffffffffffffffffffffffffffff021916908373ffffffffffffffffffffffffffffffffffffffff16021790555033600660008473ffffffffffffffffffffffffffffffffffffffff1673ffffffffffffffffffffffffffffffffffffffff16815260200190815260200160002060003373ffffffffffffffffffffffffffffffffffffffff1673ffffffffffffffffffffffffffffffffffffffff16815260200190815260200160002060010160006101000a81548173ffffffffffffffffffffffffffffffffffffffff021916908373ffffffffffffffffffffffffffffffffffffffff16021790555033600760008473ffffffffffffffffffffffffffffffffffffffff1673ffffffffffffffffffffffffffffffffffffffff1681526020019081526020016000206000600860008673ffffffffffffffffffffffffffffffffffffffff1673ffffffffffffffffffffffffffffffffffffffff16815260200190815260200160002054815260200190815260200160002060006101000a81548173ffffffffffffffffffffffffffffffffffffffff021916908373ffffffffffffffffffffffffffffffffffffffff160217905550600860008373ffffffffffffffffffffffffffffffffffffffff1673ffffffffffffffffffffffffffffffffffffffff1681526020019081526020016000206000815480929190600101919050555081600960003373ffffffffffffffffffffffffffffffffffffffff1673ffffffffffffffffffffffffffffffffffffffff1681526020019081526020016000206000600a60003373ffffffffffffffffffffffffffffffffffffffff1673ffffffffffffffffffffffffffffffffffffffff16815260200190815260200160002054815260200190815260200160002060006101000a81548173ffffffffffffffffffffffffffffffffffffffff021916908373ffffffffffffffffffffffffffffffffffffffff160217905550600a60003373ffffffffffffffffffffffffffffffffffffffff1673ffffffffffffffffffffffffffffffffffffffff16815260200190815260200160002060008154809291906001019190505550346000808473ffffffffffffffffffffffffffffffffffffffff1673ffffffffffffffffffffffffffffffffffffffff1681526020019081526020016000206001016000828254019250508190555034600660008473ffffffffffffffffffffffffffffffffffffffff1673ffffffffffffffffffffffffffffffffffffffff16815260200190815260200160002060003373ffffffffffffffffffffffffffffffffffffffff1673ffffffffffffffffffffffffffffffffffffffff1681526020019081526020016000206002018190555042600660008473ffffffffffffffffffffffffffffffffffffffff1673ffffffffffffffffffffffffffffffffffffffff16815260200190815260200160002060003373ffffffffffffffffffffffffffffffffffffffff1673ffffffffffffffffffffffffffffffffffffffff1681526020019081526020016000206003018190555060784201600660008473ffffffffffffffffffffffffffffffffffffffff1673ffffffffffffffffffffffffffffffffffffffff16815260200190815260200160002060003373ffffffffffffffffffffffffffffffffffffffff1673ffffffffffffffffffffffffffffffffffffffff1681526020019081526020016000206004018190555080600660008473ffffffffffffffffffffffffffffffffffffffff1673ffffffffffffffffffffffffffffffffffffffff16815260200190815260200160002060003373ffffffffffffffffffffffffffffffffffffffff1673ffffffffffffffffffffffffffffffffffffffff168152602001908152602001600020600501819055506001600660008473ffffffffffffffffffffffffffffffffffffffff1673ffffffffffffffffffffffffffffffffffffffff16815260200190815260200160002060003373ffffffffffffffffffffffffffffffffffffffff1673ffffffffffffffffffffffffffffffffffffffff16815260200190815260200160002060060160006101000a81548160ff0219169083151502179055505050565b60008060008060008090505b600d60003373ffffffffffffffffffffffffffffffffffffffff1673ffffffffffffffffffffffffffffffffffffffff1681526020019081526020016000205481101561455a57600c60003373ffffffffffffffffffffffffffffffffffffffff1673ffffffffffffffffffffffffffffffffffffffff168152602001908152602001600020600082815260200190815260200160002060009054906101000a900473ffffffffffffffffffffffffffffffffffffffff169450600b60003373ffffffffffffffffffffffffffffffffffffffff1673ffffffffffffffffffffffffffffffffffffffff16815260200190815260200160002060008673ffffffffffffffffffffffffffffffffffffffff1673ffffffffffffffffffffffffffffffffffffffff1681526020019081526020016000206002015493506000803373ffffffffffffffffffffffffffffffffffffffff1673ffffffffffffffffffffffffffffffffffffffff1681526020019081526020016000206005015492506064808481151561446157fe5b04850281151561446d57fe5b0491506000803373ffffffffffffffffffffffffffffffffffffffff1673ffffffffffffffffffffffffffffffffffffffff1681526020019081526020016000206001015482111515156144c057600080fd5b81600b60003373ffffffffffffffffffffffffffffffffffffffff1673ffffffffffffffffffffffffffffffffffffffff16815260200190815260200160002060008773ffffffffffffffffffffffffffffffffffffffff1673ffffffffffffffffffffffffffffffffffffffff1681526020019081526020016000206002016000828254019250508190555080806001019150506142d4565b5050505050565b6000806000803373ffffffffffffffffffffffffffffffffffffffff1673ffffffffffffffffffffffffffffffffffffffff16815260200190815260200160002060020154141515156145b357600080fd5b6000803373ffffffffffffffffffffffffffffffffffffffff1673ffffffffffffffffffffffffffffffffffffffff16815260200190815260200160002060010154905090565b600080600080600060011515600660003373ffffffffffffffffffffffffffffffffffffffff1673ffffffffffffffffffffffffffffffffffffffff16815260200190815260200160002060008873ffffffffffffffffffffffffffffffffffffffff1673ffffffffffffffffffffffffffffffffffffffff16815260200190815260200160002060060160009054906101000a900460ff1615151415156146a157600080fd5b600660003373ffffffffffffffffffffffffffffffffffffffff1673ffffffffffffffffffffffffffffffffffffffff16815260200190815260200160002060008773ffffffffffffffffffffffffffffffffffffffff1673ffffffffffffffffffffffffffffffffffffffff16815260200190815260200160002060040154915081421015151561473257600080fd5b600660003373ffffffffffffffffffffffffffffffffffffffff1673ffffffffffffffffffffffffffffffffffffffff16815260200190815260200160002060008773ffffffffffffffffffffffffffffffffffffffff1673ffffffffffffffffffffffffffffffffffffffff168152602001908152602001600020600501549050600660003373ffffffffffffffffffffffffffffffffffffffff1673ffffffffffffffffffffffffffffffffffffffff16815260200190815260200160002060008773ffffffffffffffffffffffffffffffffffffffff1673ffffffffffffffffffffffffffffffffffffffff1681526020019081526020016000206002015494506000803373ffffffffffffffffffffffffffffffffffffffff1673ffffffffffffffffffffffffffffffffffffffff1681526020019081526020016000206004015493506064808581151561488757fe5b048287020281151561489557fe5b04850192506000803373ffffffffffffffffffffffffffffffffffffffff1673ffffffffffffffffffffffffffffffffffffffff1681526020019081526020016000206001015483111515156148ea57600080fd5b826000803373ffffffffffffffffffffffffffffffffffffffff1673ffffffffffffffffffffffffffffffffffffffff168152602001908152602001600020600101600082825403925050819055508573ffffffffffffffffffffffffffffffffffffffff166108fc849081150290604051600060405180830381858888f19350505050151561497957600080fd5b6000600660003373ffffffffffffffffffffffffffffffffffffffff1673ffffffffffffffffffffffffffffffffffffffff16815260200190815260200160002060008873ffffffffffffffffffffffffffffffffffffffff1673ffffffffffffffffffffffffffffffffffffffff16815260200190815260200160002060060160006101000a81548160ff021916908315150217905550505050505050565b602060405190810160405280600081525090565b602060405190810160405280600081525090565b828054600181600116156101000203166002900490600052602060002090601f016020900481019282601f10614a8257805160ff1916838001178555614ab0565b82800160010185558215614ab0579182015b82811115614aaf578251825591602001919060010190614a94565b5b509050614abd9190614aed565b5090565b815481835581811511614ae857818360005260206000209182019101614ae79190614aed565b5b505050565b614b0f91905b80821115614b0b576000816000905550600101614af3565b5090565b905600a165627a7a72305820f9931ba38428b7cf3afac08294435f4d4d195773dfda6d7e21f7e6a416f40dd50029",
  "source": "pragma solidity^0.4.0;\ncontract Bank\n{\n    \n    //Register contract functions\n    struct bank_Details\n    {\n        string name;\n        uint bal;\n        uint time;\n        uint loan_interst;\n        uint fixed_deposit_interst;\n        uint account_deposit_interst;\n        uint token_count;\n        uint borrow_amount;\n        uint lend_amount;\n    }\n    \n    mapping(address => bank_Details) public bank_d1;\n    address[] public reg_user;\n\n    \n    function register(string name, uint loan_interst, uint fixed_deposit, uint acc_dep_int) public payable returns(string)\n    {\n        if(bank_d1[msg.sender].time == 0)\n        {\n            bank_d1[msg.sender].name = name;\n            bank_d1[msg.sender].loan_interst = loan_interst;\n            bank_d1[msg.sender].fixed_deposit_interst = fixed_deposit;\n            bank_d1[msg.sender].account_deposit_interst = acc_dep_int;\n            bank_d1[msg.sender].bal = msg.value;\n            bank_d1[msg.sender].time = now;\n        \n            reg_user.push(msg.sender);\n            return \"Successfully Registered\";\n        }\n        else\n        {\n            return \"Account Alreay Exist\";\n        }\n    }\n  \n    function show_registers() public view returns(address[])\n    {\n        return reg_user;\n    }\n\n    \n    function show_bank_detail(uint index,uint intr_type)public view returns(string bank_name,address tem_add,uint intr)\n    {\n        tem_add = reg_user[index];\n        bank_name = bank_d1[tem_add].name;\n        if(intr_type == 0)\n        {\n            intr = bank_d1[tem_add].loan_interst;\n        }\n        if(intr_type == 1)\n        {\n            intr = bank_d1[tem_add].fixed_deposit_interst;\n        }\n        if(intr_type == 2)\n        {\n            intr = bank_d1[tem_add].account_deposit_interst;\n        }\n    }\n\n\n    //Bank Contract Basic functions\n    modifier ch_register()\n    {\n        require(bank_d1[msg.sender].time != 0);\n        _;\n    }\n   \n    function deposit()  public payable ch_register\n    {\n        require(msg.value > 0);\n        bank_d1[msg.sender].bal += msg.value;\n    }\n   \n    function withdraw(uint256 amount) ch_register public\n    {\n        require(bank_d1[msg.sender].bal > amount);\n        bank_d1[msg.sender].bal -= amount;\n        msg.sender.transfer(amount);\n    }\n   \n    function transfer(address to,uint256 amount) ch_register public\n    {  \n        require(bank_d1[msg.sender].bal > amount);\n        bank_d1[to].bal += amount;\n        bank_d1[msg.sender].bal -= amount; //amount transfered to other persion bank address\n        //to.transfer(amount);\n    }\n    \n    function GetBalance() ch_register public constant returns (uint256)\n    {\n        return bank_d1[msg.sender].bal;\n    }\n\n    function fetchBalance(address _banker) public constant returns (uint256)\n    {\n        return bank_d1[_banker].bal;\n    }\n\n    function isRegistered(address _bank) public constant returns (bool) {\n      return bank_d1[_bank].time > 0;\n    }\n\n\n\n\n    //Loan_Details contract functions\n    struct loan_get\n    {\n        address bank_address;\n        uint amount;\n        uint count;\n        uint last_setl_time;\n        uint time;\n        uint months;\n        uint bal_ln;\n        uint installment;\n        uint id;\n    }\n    \n    mapping (address => mapping(uint256 => loan_get)) public ln_get;\n    mapping(address => uint256) public ln_get_count;\n    \n    struct loan_pro\n    {\n        address bank_address;\n        uint256 amount;\n        uint time;\n        uint months;\n    }\n    \n    mapping (address => mapping(uint256 => loan_pro)) public ln_pro;\n    mapping(address => uint256)public ln_pro_count;\n    \n    function req_loan(address bank_address,uint256 amt,uint8 year) public //payable\n    {\n        require(bank_d1[msg.sender].time!=0);\n        require(bank_d1[bank_address].time!=0);\n        require(bank_address!=msg.sender);\n        \n        require (bank_d1[bank_address].bal > amt );\n            \n        bank_d1[msg.sender].bal += amt;\n        //msg.sender.transfer(amt);\n        bank_d1[bank_address].bal -= amt;\n        \n        bank_d1[msg.sender].borrow_amount += amt;\n        bank_d1[bank_address].lend_amount += amt;\n        \n        ln_get[msg.sender][ln_get_count[msg.sender]].bank_address = bank_address;\n        ln_get[msg.sender][ln_get_count[msg.sender]].amount = amt;\n        ln_get[msg.sender][ln_get_count[msg.sender]].months = year*12;\n        ln_get[msg.sender][ln_get_count[msg.sender]].time = now;\n        ln_get[msg.sender][ln_get_count[msg.sender]].last_setl_time = now;\n        ln_get[msg.sender][ln_get_count[msg.sender]].installment = (amt) / (year*12);\n        ln_get[msg.sender][ln_get_count[msg.sender]].bal_ln = amt;\n        ln_get[msg.sender][ln_get_count[msg.sender]].id = ln_get_count[msg.sender];\n        \n        ln_pro[bank_address][ln_pro_count[bank_address]].bank_address = msg.sender;\n        ln_pro[bank_address][ln_pro_count[bank_address]].amount = amt;\n        ln_pro[bank_address][ln_pro_count[bank_address]].months = year*12;\n        ln_pro[bank_address][ln_pro_count[bank_address]].time = now;\n        \n        ln_pro_count[bank_address]++;\n        ln_get_count[msg.sender]++;\n    }\n    \n    function settlement(uint ln_id) public\n    {\n        uint temp_count = ln_get[msg.sender][ln_id].count;\n        uint temp_month = ln_get[msg.sender][ln_id].months;\n        uint temp_bal_ln = ln_get[msg.sender][ln_id].bal_ln;\n        uint temp_ins = ln_get[msg.sender][ln_id].installment;\n        //uint temp_last = ln_get[msg.sender][ln_id].last_setl_time + 1 minutes; //30 days;\n        address temp_bank_address = ln_get[msg.sender][ln_id].bank_address;\n        \n        require(temp_count < temp_month);\n        //require(temp_last <= now);\n        \n        uint intr = bank_d1[temp_bank_address].loan_interst;\n        uint amont = ( temp_bal_ln * (intr/100) ) /100;\n        \n        require(amont + temp_ins <= bank_d1[msg.sender].bal);\n        \n        bank_d1[msg.sender].bal -= amont + temp_ins;\n        bank_d1[temp_bank_address].bal += amont + temp_ins;\n\n        bank_d1[msg.sender].borrow_amount -= temp_ins;\n        bank_d1[temp_bank_address].lend_amount -= temp_ins;\n        \n        //ln_get[msg.sender][ln_id].last_setl_time = temp_last ;//30 days;\n        ln_get[msg.sender][ln_id].bal_ln -= temp_ins;\n        ln_get[msg.sender][ln_id].count++;\n    }\n\n\n\n\n    \n    //Fixed_Deposit contract functions\n    struct Bank_Client\n    {\n        address bank_address;\n        address user_address;\n        uint256 amount;\n        uint256 start_time;\n        uint256 end_time;\n        uint256 year;\n        bool check;\n    }\n\n    mapping(address => mapping(address => Bank_Client)) public bank_client_Details;\n\n    //Bank can stores the users details\n    mapping(address => mapping(uint256 => address)) public bank_owner_clients;\n    mapping(address => uint256) public bank_client_count;\n\n    //User can stores the deposited bank details\n    mapping(address => mapping(uint256 => address)) public my_acc_details;\n    mapping(address => uint256) public my_acc_count;\n\n    function Fixed_Deposit(address bank_addr, uint256 year) public payable\n    {\n        require(bank_d1[bank_addr].time != 0);\n        \n        require( bank_client_Details[bank_addr][msg.sender].check == false );\n        require(bank_addr != msg.sender);\n        bank_client_Details[bank_addr][msg.sender].bank_address = bank_addr;\n        bank_client_Details[bank_addr][msg.sender].user_address = msg.sender;\n        bank_owner_clients[bank_addr][ bank_client_count[bank_addr] ] = msg.sender;\n        bank_client_count[bank_addr]++;\n\n        my_acc_details[msg.sender][ my_acc_count [msg.sender] ] = bank_addr;\n        my_acc_count[msg.sender]++;\n        \n        bank_d1[bank_addr].bal += msg.value;\n        \n        bank_client_Details[bank_addr][msg.sender].amount = msg.value;\n        bank_client_Details[bank_addr][msg.sender].start_time = now;\n        bank_client_Details[bank_addr][msg.sender].end_time =now + 2 minutes;//now + (year *1 years);\n        bank_client_Details[bank_addr][msg.sender].year = year;\n        bank_client_Details[bank_addr][msg.sender].check = true;\n        \n    }\n\n    \n    function fixed_amount_get(address bank_addr) public\n    {\n        require( bank_client_Details[bank_addr][msg.sender].check == true );\n        \n        uint256 temp_amount;\n        uint256 temp_interest;\n        uint256 temp_int_amt;\n        uint256 temp_end_time;\n        uint256 temp_year;\n        \n        temp_year = bank_client_Details[bank_addr][msg.sender].year;\n        temp_amount = bank_client_Details[bank_addr][msg.sender].amount;\n        temp_interest = bank_d1[bank_addr].fixed_deposit_interst;\n        temp_end_time = bank_client_Details[bank_addr][msg.sender].end_time;\n        \n        if ( now >= temp_end_time )\n        {\n            temp_int_amt = temp_amount + ( (temp_amount * temp_year * (temp_interest/100)) / 100 );\n            \n            require(temp_int_amt <= bank_d1[bank_addr].bal);\n            \n            bank_d1[bank_addr].bal -= temp_int_amt;\n            msg.sender.transfer( temp_int_amt );\n            \n            bank_client_Details[bank_addr][msg.sender].check = false;\n        }\n        \n        else\n        {\n            temp_int_amt = temp_amount - (temp_amount / 100) ;\n            \n            require(temp_int_amt <= bank_d1[bank_addr].bal);\n            \n            bank_d1[bank_addr].bal -= temp_int_amt;\n            msg.sender.transfer( temp_int_amt );\n            \n            bank_client_Details[bank_addr][msg.sender].check = false;\n        }\n    }        \n       \n    \n    \n    function amount_settlement(address user_address) public\n    {\n        \n        uint256 temp_amount;\n        uint256 temp_interest;\n        uint256 temp_int_amt;\n        uint256 temp_end_time;\n        uint256 temp_year;\n        \n        \n        require( bank_client_Details[msg.sender][user_address].check == true );\n        \n        temp_end_time = bank_client_Details[msg.sender][user_address].end_time;\n        require ( now >= temp_end_time );\n        \n        temp_year = bank_client_Details[msg.sender][user_address].year;\n        temp_amount = bank_client_Details[msg.sender][user_address].amount;\n        temp_interest = bank_d1[msg.sender].fixed_deposit_interst;\n        \n        temp_int_amt = temp_amount + ( (temp_amount * temp_year * (temp_interest / 100)) / 100 );\n        \n        require(temp_int_amt <= bank_d1[msg.sender].bal);\n        \n        bank_d1[msg.sender].bal -= temp_int_amt;\n        user_address.transfer( temp_int_amt );\n        \n        bank_client_Details[msg.sender][user_address].check = false;\n    \n    }\n\n    \n    \n    \n    \n    //Bank act as a Client (dep,withdraw,trans) contract functions\n    struct Bank_Client_Ac\n    {\n        address bank_address;\n        address user_address;\n        uint256 amount;\n    }\n\n    mapping(address => mapping(address => Bank_Client_Ac)) public bank_client_ac_Details;\n\n    //Bank can stores the users details\n    mapping(address => mapping(uint256 => address)) public bank_owner_clients_ac;\n    mapping(address => uint256) public bank_client_ac_count;\n\n    //User can stores the deposited bank details\n    mapping(address => mapping(uint256 => address)) public my_ac_details;\n    mapping(address => uint256) public my_ac_count;\n\n    function register_client(address bank_addr) public\n    {\n        require(bank_addr != msg.sender);\n        bank_client_ac_Details[bank_addr][msg.sender].bank_address = bank_addr;\n        bank_client_ac_Details[bank_addr][msg.sender].user_address = msg.sender;\n        bank_owner_clients_ac[bank_addr][ bank_client_ac_count[bank_addr] ] = msg.sender;\n        bank_client_ac_count[bank_addr]++;\n\n        my_ac_details[msg.sender][ my_ac_count[msg.sender] ] = bank_addr;\n        my_ac_count[msg.sender]++;\n    }\n\n    function deposit_client(address bank_addr) public payable\n    {\n        \n        if(bank_client_ac_Details[bank_addr][msg.sender].user_address != msg.sender)\n        {\n            register_client(bank_addr);\n        }\n        \n        bank_client_ac_Details [bank_addr] [msg.sender].amount += msg.value;\n        bank_d1 [bank_addr].bal += msg.value;\n        \n    }\n    \n    function withdraw_client(address bank_addr, uint256 amount) public\n    {\n        require(bank_d1 [bank_addr].bal >= amount);\n        \n        //require(bank_client_Details [bank_addr] [msg.sender].user_address != msg.sender);\n        //bank_d1[msg.sender].bal += amount;\n        bank_client_ac_Details [bank_addr] [msg.sender].amount -= amount;\n        bank_d1 [bank_addr].bal -= amount;\n        msg.sender.transfer(amount);\n    }\n    \n    function transfer_client(address bank_addr, address to, uint256 amount) public\n    {\n        require(bank_d1 [bank_addr].bal >= amount);\n         \n        //require(bank_client_Details [bank_addr] [msg.sender].user_address != msg.sender);\n        //bank_d1[msg.sender].bal += amount;\n        bank_client_ac_Details [bank_addr] [msg.sender].amount -= amount;\n        bank_d1[bank_addr].bal -=amount;\n        bank_d1[to].bal += amount;\n        //to.transfer(amount);\n    }\n    \n    \n    function give_interest() public\n    {\n        address temp_bank_address;\n        uint256 temp_amount;\n        uint256 temp_interest;\n        uint256 temp_int_amt;\n        \n        for(uint256 i=0;i<bank_client_ac_count[msg.sender];i++)\n        {\n            temp_bank_address = bank_owner_clients_ac[msg.sender][i];\n            temp_amount = bank_client_ac_Details[msg.sender][temp_bank_address].amount;\n            temp_interest = bank_d1[msg.sender].account_deposit_interst;\n            \n            temp_int_amt=( temp_amount * (temp_interest/100) )/100;\n            \n            require(temp_int_amt <= bank_d1[msg.sender].bal);\n            \n            bank_client_ac_Details[msg.sender][temp_bank_address].amount += temp_int_amt;\n        }\n    }\n}",
  "sourcePath": "D:\\Project\\banknew\\Bank-Walet\\contracts\\Bank.sol",
  "compiler": {
    "name": "solc",
    "version": "0.4.19+commit.c4cbbb05.Emscripten.clang"
  },
  "schemaVersion": "2.0.0",
  "updatedAt": "2018-04-06T11:57:36.306Z"
}